{
  "_format": "hh-sol-artifact-1",
  "contractName": "MediVerify",
  "sourceName": "contracts/MediVerify.sol",
  "abi": [
    {
      "anonymous": false,
      "inputs": [
        {
          "indexed": true,
          "internalType": "string",
          "name": "qrCode",
          "type": "string"
        },
        {
          "indexed": false,
          "internalType": "string",
          "name": "drugName",
          "type": "string"
        },
        {
          "indexed": true,
          "internalType": "address",
          "name": "registeredBy",
          "type": "address"
        }
      ],
      "name": "DrugRegistered",
      "type": "event"
    },
    {
      "anonymous": false,
      "inputs": [
        {
          "indexed": true,
          "internalType": "string",
          "name": "qrCode",
          "type": "string"
        },
        {
          "indexed": false,
          "internalType": "string",
          "name": "oldStatus",
          "type": "string"
        },
        {
          "indexed": false,
          "internalType": "string",
          "name": "newStatus",
          "type": "string"
        },
        {
          "indexed": true,
          "internalType": "address",
          "name": "updatedBy",
          "type": "address"
        }
      ],
      "name": "DrugStatusUpdated",
      "type": "event"
    },
    {
      "anonymous": false,
      "inputs": [
        {
          "indexed": true,
          "internalType": "string",
          "name": "qrCode",
          "type": "string"
        },
        {
          "indexed": false,
          "internalType": "string",
          "name": "step",
          "type": "string"
        },
        {
          "indexed": false,
          "internalType": "uint256",
          "name": "timestamp",
          "type": "uint256"
        }
      ],
      "name": "SupplyChainStepAdded",
      "type": "event"
    },
    {
      "inputs": [
        {
          "internalType": "string",
          "name": "_qrCode",
          "type": "string"
        },
        {
          "internalType": "string",
          "name": "_step",
          "type": "string"
        }
      ],
      "name": "addSupplyChainStep",
      "outputs": [],
      "stateMutability": "nonpayable",
      "type": "function"
    },
    {
      "inputs": [
        {
          "internalType": "string",
          "name": "",
          "type": "string"
        }
      ],
      "name": "drugs",
      "outputs": [
        {
          "internalType": "string",
          "name": "manufacturer",
          "type": "string"
        },
        {
          "internalType": "string",
          "name": "drugName",
          "type": "string"
        },
        {
          "internalType": "string",
          "name": "batchNumber",
          "type": "string"
        },
        {
          "internalType": "string",
          "name": "expiryDate",
          "type": "string"
        },
        {
          "internalType": "string",
          "name": "status",
          "type": "string"
        },
        {
          "internalType": "string",
          "name": "description",
          "type": "string"
        },
        {
          "internalType": "bool",
          "name": "exists",
          "type": "bool"
        }
      ],
      "stateMutability": "view",
      "type": "function"
    },
    {
      "inputs": [
        {
          "internalType": "string",
          "name": "_qrCode",
          "type": "string"
        }
      ],
      "name": "getDrugDetails",
      "outputs": [
        {
          "internalType": "string",
          "name": "manufacturer",
          "type": "string"
        },
        {
          "internalType": "string",
          "name": "drugName",
          "type": "string"
        },
        {
          "internalType": "string",
          "name": "batchNumber",
          "type": "string"
        },
        {
          "internalType": "string",
          "name": "expiryDate",
          "type": "string"
        },
        {
          "internalType": "string[]",
          "name": "supplyChain",
          "type": "string[]"
        },
        {
          "internalType": "string",
          "name": "status",
          "type": "string"
        },
        {
          "internalType": "string",
          "name": "description",
          "type": "string"
        },
        {
          "internalType": "bool",
          "name": "exists",
          "type": "bool"
        }
      ],
      "stateMutability": "view",
      "type": "function"
    },
    {
      "inputs": [
        {
          "internalType": "string",
          "name": "_qrCode",
          "type": "string"
        },
        {
          "internalType": "string",
          "name": "_manufacturer",
          "type": "string"
        },
        {
          "internalType": "string",
          "name": "_drugName",
          "type": "string"
        },
        {
          "internalType": "string",
          "name": "_batchNumber",
          "type": "string"
        },
        {
          "internalType": "string",
          "name": "_expiryDate",
          "type": "string"
        },
        {
          "internalType": "string",
          "name": "_description",
          "type": "string"
        }
      ],
      "name": "registerDrugBatch",
      "outputs": [],
      "stateMutability": "nonpayable",
      "type": "function"
    },
    {
      "inputs": [
        {
          "internalType": "string",
          "name": "_qrCode",
          "type": "string"
        },
        {
          "internalType": "string",
          "name": "_newStatus",
          "type": "string"
        }
      ],
      "name": "updateDrugStatus",
      "outputs": [],
      "stateMutability": "nonpayable",
      "type": "function"
    }
  ],
  "bytecode": "0x608060405234801561001057600080fd5b50611f97806100206000396000f3fe608060405234801561001057600080fd5b50600436106100575760003560e01c80632094c21d1461005c578063567e963614610078578063675c505f146100af578063b009493d146100cb578063df8cf77414610101575b600080fd5b610076600480360381019061007191906112e3565b61011d565b005b610092600480360381019061008d9190611418565b610416565b6040516100a6989796959493929190611607565b60405180910390f35b6100c960048036038101906100c491906116b6565b6108a9565b005b6100e560048036038101906100e09190611418565b610a5e565b6040516100f8979695949392919061172e565b60405180910390f35b61011b600480360381019061011691906116b6565b610df3565b005b60008660405161012d9190611803565b908152602001604051809103902060070160009054906101000a900460ff161561018c576040517f08c379a00000000000000000000000000000000000000000000000000000000081526004016101839061188c565b60405180910390fd5b604051806101000160405280868152602001858152602001848152602001838152602001600067ffffffffffffffff8111156101cb576101ca6111b8565b5b6040519080825280602002602001820160405280156101fe57816020015b60608152602001906001900390816101e95790505b5081526020016040518060400160405280600981526020017f61757468656e746963000000000000000000000000000000000000000000000081525081526020018281526020016001151581525060008760405161025c9190611803565b9081526020016040518091039020600082015181600001908161027f9190611ac2565b5060208201518160010190816102959190611ac2565b5060408201518160020190816102ab9190611ac2565b5060608201518160030190816102c19190611ac2565b5060808201518160040190805190602001906102de9291906110af565b5060a08201518160050190816102f49190611ac2565b5060c082015181600601908161030a9190611ac2565b5060e08201518160070160006101000a81548160ff02191690831515021790555090505060008660405161033e9190611803565b908152602001604051809103902060040185610358610f30565b604051602001610369929190611c2c565b6040516020818303038152906040529080600181540180825580915050600190039060005260206000200160009091909190915090816103a99190611ac2565b503373ffffffffffffffffffffffffffffffffffffffff16866040516103cf9190611803565b60405180910390207ff218f27eb1d5fb025991628b0f18a043d0c3b678a9d2de4d7baee375663ddcd6866040516104069190611c66565b60405180910390a3505050505050565b606080606080606080606060008060008a6040516104349190611803565b90815260200160405180910390209050806000018160010182600201836003018460040185600501866006018760070160009054906101000a900460ff1687805461047e906118db565b80601f01602080910402602001604051908101604052809291908181526020018280546104aa906118db565b80156104f75780601f106104cc576101008083540402835291602001916104f7565b820191906000526020600020905b8154815290600101906020018083116104da57829003601f168201915b5050505050975086805461050a906118db565b80601f0160208091040260200160405190810160405280929190818152602001828054610536906118db565b80156105835780601f1061055857610100808354040283529160200191610583565b820191906000526020600020905b81548152906001019060200180831161056657829003601f168201915b50505050509650858054610596906118db565b80601f01602080910402602001604051908101604052809291908181526020018280546105c2906118db565b801561060f5780601f106105e45761010080835404028352916020019161060f565b820191906000526020600020905b8154815290600101906020018083116105f257829003601f168201915b50505050509550848054610622906118db565b80601f016020809104026020016040519081016040528092919081815260200182805461064e906118db565b801561069b5780601f106106705761010080835404028352916020019161069b565b820191906000526020600020905b81548152906001019060200180831161067e57829003601f168201915b5050505050945083805480602002602001604051908101604052809291908181526020016000905b8282101561076f5783829060005260206000200180546106e2906118db565b80601f016020809104026020016040519081016040528092919081815260200182805461070e906118db565b801561075b5780601f106107305761010080835404028352916020019161075b565b820191906000526020600020905b81548152906001019060200180831161073e57829003601f168201915b5050505050815260200190600101906106c3565b505050509350828054610781906118db565b80601f01602080910402602001604051908101604052809291908181526020018280546107ad906118db565b80156107fa5780601f106107cf576101008083540402835291602001916107fa565b820191906000526020600020905b8154815290600101906020018083116107dd57829003601f168201915b5050505050925081805461080d906118db565b80601f0160208091040260200160405190810160405280929190818152602001828054610839906118db565b80156108865780601f1061085b57610100808354040283529160200191610886565b820191906000526020600020905b81548152906001019060200180831161086957829003601f168201915b505050505091509850985098509850985098509850985050919395975091939597565b6000826040516108b99190611803565b908152602001604051809103902060070160009054906101000a900460ff16610917576040517f08c379a000000000000000000000000000000000000000000000000000000000815260040161090e90611cd4565b60405180910390fd5b600080836040516109289190611803565b90815260200160405180910390206005018054610944906118db565b80601f0160208091040260200160405190810160405280929190818152602001828054610970906118db565b80156109bd5780601f10610992576101008083540402835291602001916109bd565b820191906000526020600020905b8154815290600101906020018083116109a057829003601f168201915b50505050509050816000846040516109d59190611803565b908152602001604051809103902060050190816109f29190611ac2565b503373ffffffffffffffffffffffffffffffffffffffff1683604051610a189190611803565b60405180910390207fe5880864c58baa21ab153b204f7ea97ac86a36ec2abcb6f2e2091fd5854948f98385604051610a51929190611cf4565b60405180910390a3505050565b600081805160208101820180518482526020830160208501208183528095505050505050600091509050806000018054610a97906118db565b80601f0160208091040260200160405190810160405280929190818152602001828054610ac3906118db565b8015610b105780601f10610ae557610100808354040283529160200191610b10565b820191906000526020600020905b815481529060010190602001808311610af357829003601f168201915b505050505090806001018054610b25906118db565b80601f0160208091040260200160405190810160405280929190818152602001828054610b51906118db565b8015610b9e5780601f10610b7357610100808354040283529160200191610b9e565b820191906000526020600020905b815481529060010190602001808311610b8157829003601f168201915b505050505090806002018054610bb3906118db565b80601f0160208091040260200160405190810160405280929190818152602001828054610bdf906118db565b8015610c2c5780601f10610c0157610100808354040283529160200191610c2c565b820191906000526020600020905b815481529060010190602001808311610c0f57829003601f168201915b505050505090806003018054610c41906118db565b80601f0160208091040260200160405190810160405280929190818152602001828054610c6d906118db565b8015610cba5780601f10610c8f57610100808354040283529160200191610cba565b820191906000526020600020905b815481529060010190602001808311610c9d57829003601f168201915b505050505090806005018054610ccf906118db565b80601f0160208091040260200160405190810160405280929190818152602001828054610cfb906118db565b8015610d485780601f10610d1d57610100808354040283529160200191610d48565b820191906000526020600020905b815481529060010190602001808311610d2b57829003601f168201915b505050505090806006018054610d5d906118db565b80601f0160208091040260200160405190810160405280929190818152602001828054610d89906118db565b8015610dd65780601f10610dab57610100808354040283529160200191610dd6565b820191906000526020600020905b815481529060010190602001808311610db957829003601f168201915b5050505050908060070160009054906101000a900460ff16905087565b600082604051610e039190611803565b908152602001604051809103902060070160009054906101000a900460ff16610e61576040517f08c379a0000000000000000000000000000000000000000000000000000000008152600401610e5890611cd4565b60405180910390fd5b600082604051610e719190611803565b908152602001604051809103902060040181610e8b610f30565b604051602001610e9c929190611d2b565b604051602081830303815290604052908060018154018082558091505060019003906000526020600020016000909190919091509081610edc9190611ac2565b5081604051610eeb9190611803565b60405180910390207f3f60ab2c1bc60bdf4c122f174e91ca180cfe8227bfaebb01af3bcd5ad16756c08242604051610f24929190611d69565b60405180910390a25050565b6060610f3b42610f40565b905090565b606060008203610f87576040518060400160405280600181526020017f300000000000000000000000000000000000000000000000000000000000000081525090506110aa565b600082905060005b60008214610fb9578080610fa290611dc8565b915050600a82610fb29190611e3f565b9150610f8f565b60008167ffffffffffffffff811115610fd557610fd46111b8565b5b6040519080825280601f01601f1916602001820160405280156110075781602001600182028036833780820191505090505b50905060006001836110199190611e70565b90505b600086146110a257600a866110319190611ea4565b603061103d9190611ed5565b60f81b82828061104c90611f09565b93508151811061105f5761105e611f32565b5b60200101907effffffffffffffffffffffffffffffffffffffffffffffffffffffffffffff1916908160001a905350600a8661109b9190611e3f565b955061101c565b819450505050505b919050565b8280548282559060005260206000209081019282156110f7579160200282015b828111156110f65782518290816110e69190611ac2565b50916020019190600101906110cf565b5b5090506111049190611108565b5090565b5b80821115611128576000818161111f919061112c565b50600101611109565b5090565b508054611138906118db565b6000825580601f1061114a5750611169565b601f016020900490600052602060002090810190611168919061116c565b5b50565b5b8082111561118557600081600090555060010161116d565b5090565b6000604051905090565b600080fd5b600080fd5b600080fd5b600080fd5b6000601f19601f8301169050919050565b7f4e487b7100000000000000000000000000000000000000000000000000000000600052604160045260246000fd5b6111f0826111a7565b810181811067ffffffffffffffff8211171561120f5761120e6111b8565b5b80604052505050565b6000611222611189565b905061122e82826111e7565b919050565b600067ffffffffffffffff82111561124e5761124d6111b8565b5b611257826111a7565b9050602081019050919050565b82818337600083830152505050565b600061128661128184611233565b611218565b9050828152602081018484840111156112a2576112a16111a2565b5b6112ad848285611264565b509392505050565b600082601f8301126112ca576112c961119d565b5b81356112da848260208601611273565b91505092915050565b60008060008060008060c08789031215611300576112ff611193565b5b600087013567ffffffffffffffff81111561131e5761131d611198565b5b61132a89828a016112b5565b965050602087013567ffffffffffffffff81111561134b5761134a611198565b5b61135789828a016112b5565b955050604087013567ffffffffffffffff81111561137857611377611198565b5b61138489828a016112b5565b945050606087013567ffffffffffffffff8111156113a5576113a4611198565b5b6113b189828a016112b5565b935050608087013567ffffffffffffffff8111156113d2576113d1611198565b5b6113de89828a016112b5565b92505060a087013567ffffffffffffffff8111156113ff576113fe611198565b5b61140b89828a016112b5565b9150509295509295509295565b60006020828403121561142e5761142d611193565b5b600082013567ffffffffffffffff81111561144c5761144b611198565b5b611458848285016112b5565b91505092915050565b600081519050919050565b600082825260208201905092915050565b60005b8381101561149b578082015181840152602081019050611480565b60008484015250505050565b60006114b282611461565b6114bc818561146c565b93506114cc81856020860161147d565b6114d5816111a7565b840191505092915050565b600081519050919050565b600082825260208201905092915050565b6000819050602082019050919050565b600082825260208201905092915050565b600061152882611461565b611532818561150c565b935061154281856020860161147d565b61154b816111a7565b840191505092915050565b6000611562838361151d565b905092915050565b6000602082019050919050565b6000611582826114e0565b61158c81856114eb565b93508360208202850161159e856114fc565b8060005b858110156115da57848403895281516115bb8582611556565b94506115c68361156a565b925060208a019950506001810190506115a2565b50829750879550505050505092915050565b60008115159050919050565b611601816115ec565b82525050565b6000610100820190508181036000830152611622818b6114a7565b90508181036020830152611636818a6114a7565b9050818103604083015261164a81896114a7565b9050818103606083015261165e81886114a7565b905081810360808301526116728187611577565b905081810360a083015261168681866114a7565b905081810360c083015261169a81856114a7565b90506116a960e08301846115f8565b9998505050505050505050565b600080604083850312156116cd576116cc611193565b5b600083013567ffffffffffffffff8111156116eb576116ea611198565b5b6116f7858286016112b5565b925050602083013567ffffffffffffffff81111561171857611717611198565b5b611724858286016112b5565b9150509250929050565b600060e0820190508181036000830152611748818a6114a7565b9050818103602083015261175c81896114a7565b9050818103604083015261177081886114a7565b9050818103606083015261178481876114a7565b9050818103608083015261179881866114a7565b905081810360a08301526117ac81856114a7565b90506117bb60c08301846115f8565b98975050505050505050565b600081905092915050565b60006117dd82611461565b6117e781856117c7565b93506117f781856020860161147d565b80840191505092915050565b600061180f82846117d2565b915081905092915050565b7f447275672077697468207468697320515220636f646520616c7265616479206560008201527f78697374732e0000000000000000000000000000000000000000000000000000602082015250565b600061187660268361146c565b91506118818261181a565b604082019050919050565b600060208201905081810360008301526118a581611869565b9050919050565b7f4e487b7100000000000000000000000000000000000000000000000000000000600052602260045260246000fd5b600060028204905060018216806118f357607f821691505b602082108103611906576119056118ac565b5b50919050565b60008190508160005260206000209050919050565b60006020601f8301049050919050565b600082821b905092915050565b60006008830261196e7fffffffffffffffffffffffffffffffffffffffffffffffffffffffffffffffff82611931565b6119788683611931565b95508019841693508086168417925050509392505050565b6000819050919050565b6000819050919050565b60006119bf6119ba6119b584611990565b61199a565b611990565b9050919050565b6000819050919050565b6119d9836119a4565b6119ed6119e5826119c6565b84845461193e565b825550505050565b600090565b611a026119f5565b611a0d8184846119d0565b505050565b5b81811015611a3157611a266000826119fa565b600181019050611a13565b5050565b601f821115611a7657611a478161190c565b611a5084611921565b81016020851015611a5f578190505b611a73611a6b85611921565b830182611a12565b50505b505050565b600082821c905092915050565b6000611a9960001984600802611a7b565b1980831691505092915050565b6000611ab28383611a88565b9150826002028217905092915050565b611acb82611461565b67ffffffffffffffff811115611ae457611ae36111b8565b5b611aee82546118db565b611af9828285611a35565b600060209050601f831160018114611b2c5760008415611b1a578287015190505b611b248582611aa6565b865550611b8c565b601f198416611b3a8661190c565b60005b82811015611b6257848901518255600182019150602085019450602081019050611b3d565b86831015611b7f5784890151611b7b601f891682611a88565b8355505b6001600288020188555050505b505050505050565b7f5265676973746572656420617420666163746f72792062792000000000000000600082015250565b6000611bca6019836117c7565b9150611bd582611b94565b601982019050919050565b7f206f6e2000000000000000000000000000000000000000000000000000000000600082015250565b6000611c166004836117c7565b9150611c2182611be0565b600482019050919050565b6000611c3782611bbd565b9150611c4382856117d2565b9150611c4e82611c09565b9150611c5a82846117d2565b91508190509392505050565b60006020820190508181036000830152611c8081846114a7565b905092915050565b7f4472756720646f6573206e6f742065786973742e000000000000000000000000600082015250565b6000611cbe60148361146c565b9150611cc982611c88565b602082019050919050565b60006020820190508181036000830152611ced81611cb1565b9050919050565b60006040820190508181036000830152611d0e81856114a7565b90508181036020830152611d2281846114a7565b90509392505050565b6000611d3782856117d2565b9150611d4282611c09565b9150611d4e82846117d2565b91508190509392505050565b611d6381611990565b82525050565b60006040820190508181036000830152611d8381856114a7565b9050611d926020830184611d5a565b9392505050565b7f4e487b7100000000000000000000000000000000000000000000000000000000600052601160045260246000fd5b6000611dd382611990565b91507fffffffffffffffffffffffffffffffffffffffffffffffffffffffffffffffff8203611e0557611e04611d99565b5b600182019050919050565b7f4e487b7100000000000000000000000000000000000000000000000000000000600052601260045260246000fd5b6000611e4a82611990565b9150611e5583611990565b925082611e6557611e64611e10565b5b828204905092915050565b6000611e7b82611990565b9150611e8683611990565b9250828203905081811115611e9e57611e9d611d99565b5b92915050565b6000611eaf82611990565b9150611eba83611990565b925082611eca57611ec9611e10565b5b828206905092915050565b6000611ee082611990565b9150611eeb83611990565b9250828201905080821115611f0357611f02611d99565b5b92915050565b6000611f1482611990565b915060008203611f2757611f26611d99565b5b600182039050919050565b7f4e487b7100000000000000000000000000000000000000000000000000000000600052603260045260246000fdfea2646970667358221220371384c18fac7b76df75f1534e24d7557c3423ac842344a405578bbda66d831564736f6c63430008140033",
  "linkReferences": {},
  "deployedLinkReferences": {}
}